{
  "abi": [
    {
      "inputs": [
        {
          "internalType": "address[]",
          "name": "",
          "type": "address[]"
        },
        {
          "internalType": "uint256",
          "name": "",
          "type": "uint256"
        }
      ],
      "stateMutability": "payable",
      "type": "constructor"
    },
    {
      "anonymous": false,
      "inputs": [
        {
          "indexed": false,
          "internalType": "address",
          "name": "userAddress",
          "type": "address"
        },
        {
          "indexed": false,
          "internalType": "uint256",
          "name": "tier",
          "type": "uint256"
        }
      ],
      "name": "AddedToWhitelist",
      "type": "event"
    },
    {
      "anonymous": false,
      "inputs": [
        {
          "indexed": true,
          "internalType": "address",
          "name": "",
          "type": "address"
        }
      ],
      "name": "WhiteListTransfer",
      "type": "event"
    },
    {
      "inputs": [
        {
          "internalType": "address",
          "name": "_userAddrs",
          "type": "address"
        },
        {
          "internalType": "uint256",
          "name": "_tier",
          "type": "uint256"
        }
      ],
      "name": "addToWhitelist",
      "outputs": [],
      "stateMutability": "nonpayable",
      "type": "function"
    },
    {
      "inputs": [
        {
          "internalType": "uint256",
          "name": "_index",
          "type": "uint256"
        }
      ],
      "name": "administrators",
      "outputs": [
        {
          "internalType": "address",
          "name": "",
          "type": "address"
        }
      ],
      "stateMutability": "pure",
      "type": "function"
    },
    {
      "inputs": [
        {
          "internalType": "address",
          "name": "",
          "type": "address"
        }
      ],
      "name": "balanceOf",
      "outputs": [
        {
          "internalType": "uint256",
          "name": "",
          "type": "uint256"
        }
      ],
      "stateMutability": "pure",
      "type": "function"
    },
    {
      "inputs": [
        {
          "internalType": "address",
          "name": "",
          "type": "address"
        }
      ],
      "name": "balances",
      "outputs": [
        {
          "internalType": "uint256",
          "name": "",
          "type": "uint256"
        }
      ],
      "stateMutability": "nonpayable",
      "type": "function"
    },
    {
      "inputs": [
        {
          "internalType": "address",
          "name": "",
          "type": "address"
        }
      ],
      "name": "getPaymentStatus",
      "outputs": [
        {
          "internalType": "bool",
          "name": "",
          "type": "bool"
        },
        {
          "internalType": "uint256",
          "name": "",
          "type": "uint256"
        }
      ],
      "stateMutability": "view",
      "type": "function"
    },
    {
      "inputs": [
        {
          "internalType": "address",
          "name": "",
          "type": "address"
        },
        {
          "internalType": "uint256",
          "name": "",
          "type": "uint256"
        },
        {
          "internalType": "string",
          "name": "",
          "type": "string"
        }
      ],
      "name": "transfer",
      "outputs": [],
      "stateMutability": "nonpayable",
      "type": "function"
    },
    {
      "inputs": [
        {
          "internalType": "address",
          "name": "_recipient",
          "type": "address"
        },
        {
          "internalType": "uint256",
          "name": "_amount",
          "type": "uint256"
        }
      ],
      "name": "whiteTransfer",
      "outputs": [],
      "stateMutability": "nonpayable",
      "type": "function"
    },
    {
      "inputs": [
        {
          "internalType": "address",
          "name": "",
          "type": "address"
        }
      ],
      "name": "whitelist",
      "outputs": [
        {
          "internalType": "uint256",
          "name": "",
          "type": "uint256"
        }
      ],
      "stateMutability": "pure",
      "type": "function"
    }
  ],
  "bytecode": {
    "object": "0x608060405260405161054b38038061054b8339810160408190526100229161005b565b5050610127565b634e487b7160e01b600052604160045260246000fd5b80516001600160a01b038116811461005657600080fd5b919050565b6000806040838503121561006e57600080fd5b82516001600160401b038082111561008557600080fd5b818501915085601f83011261009957600080fd5b81516020828211156100ad576100ad610029565b8160051b604051601f19603f830116810181811086821117156100d2576100d2610029565b6040529283528183019350848101820192898411156100f057600080fd5b948201945b83861015610115576101068661003f565b855294820194938201936100f5565b97909101519698969750505050505050565b610415806101366000396000f3fe608060405234801561001057600080fd5b50600436106100885760003560e01c8063888b22841161005b578063888b2284146100f05780639b19251a1461011e578063d89d151014610132578063ea28d3201461015d57600080fd5b8063214405fc1461008d57806327e235e3146100a257806356b8c724146100c857806370a08231146100dc575b600080fd5b6100a061009b3660046102f3565b610170565b005b6100b56100b036600461031d565b6101ce565b6040519081526020015b60405180910390f35b6100a06100d636600461033f565b50505050565b6100b56100ea36600461031d565b50606490565b6101076100fe36600461031d565b50600054600191565b6040805192151583526020830191909152016100bf565b6100b561012c36600461031d565b50600090565b6101456101403660046103c6565b61020b565b6040516001600160a01b0390911681526020016100bf565b6100a061016b3660046102f3565b6102a2565b6112331933016100885760fe81111561018857600080fd5b604080516001600160a01b0384168152602081018390527f62c1e066774519db9fe35767c15fc33df2f016675b7cc0c330ed185f286a2d52910160405180910390a15050565b600080546000036101e157506064919050565b6064600054116101fe575050600080546064808201909255900390565b505060005490565b919050565b6000816000036102305750733243ed9fdcde2345890ddeaf6b083ca4cf0f68f2919050565b816001036102535750732b263f55bf2125159ce8ec2bb575c649f822ab46919050565b816002036102765750730ed94bc8435f3189966a49ca1358a55d871fc3bf919050565b81600303610299575073eadb3d065f8d15cc05e92594523516ad36d1c834919050565b50611234919050565b60008181556040516001600160a01b038416917f98eaee7299e9cbfa56cf530fd3a0c6dfa0ccddf4f837b8f025651ad9594647b391a25050565b80356001600160a01b038116811461020657600080fd5b6000806040838503121561030657600080fd5b61030f836102dc565b946020939093013593505050565b60006020828403121561032f57600080fd5b610338826102dc565b9392505050565b6000806000806060858703121561035557600080fd5b61035e856102dc565b935060208501359250604085013567ffffffffffffffff8082111561038257600080fd5b818701915087601f83011261039657600080fd5b8135818111156103a557600080fd5b8860208285010111156103b757600080fd5b95989497505060200194505050565b6000602082840312156103d857600080fd5b503591905056fea264697066735822122048456c21e2511308bf35eac3588f2217b444000727d3b2cf074df30008389de264736f6c63430008150033",
    "linkReferences": {}
  },
  "methodIdentifiers": {
    "addToWhitelist(address,uint256)": "214405fc",
    "administrators(uint256)": "d89d1510",
    "balanceOf(address)": "70a08231",
    "balances(address)": "27e235e3",
    "getPaymentStatus(address)": "888b2284",
    "transfer(address,uint256,string)": "56b8c724",
    "whiteTransfer(address,uint256)": "ea28d320",
    "whitelist(address)": "9b19251a"
  },
  "id": 17
}